:020000040800F2
:10000000600500209D010008892A0008C12400081D
:10001000852A00087D040008613400080000000003
:100020000000000000000000000000007531000822
:1000300081040008000000007131000879310008D7
:10004000B7010008B7010008B7010008B7010008B0
:10005000B7010008B7010008B7010008B7010008A0
:10006000B7010008B7010008B7010008B701000890
:10007000B7010008B7010008B7010008B701000880
:10008000B7010008B7010008B7010008B701000870
:10009000B7010008B7010008B7010008B701000860
:1000A000B7010008B7010008B7010008B701000850
:1000B000B7010008B7010008B7010008B701000840
:1000C000B7010008B7010008B7010008B701000830
:1000D000B7010008B7010008B7010008B701000820
:1000E000B7010008B7010008B7010008B701000810
:1000F000B7010008B7010008B7010008B701000800
:10010000B7010008B7010008B7010008B7010008EF
:10011000B7010008B7010008B7010008B7010008DF
:10012000B7010008B7010008B7010008B7010008CF
:10013000B7010008B7010008B7010008B7010008BF
:10014000B7010008B7010008B7010008B7010008AF
:10015000B7010008B7010008B7010008B70100089F
:10016000B7010008B7010008B7010008B70100088F
:10017000B7010008B7010008B7010008000000003F
:10018000B7010008B7010008DFF80CD000F064F9EF
:1001900000480047E1360008600500200648804717
:1001A00006480047FEE7FEE7FEE7FEE7FEE7FEE75C
:1001B000FEE7FEE7FEE7FEE72D32000889010008B2
:1001C0002DE9F05F0546002092469B46884606468C
:1001D000814640241BE0284641464746224600F01F
:1001E000CEF853465A46C01A914110D311461846CC
:1001F000224600F0B5F82D1A67EB01084F4622465B
:100200000120002100F0ACF817EB00094E41201E40
:10021000A4F10104DFDC484631462A464346BDE8E6
:10022000F09F2DE9F04D81EA030404F0004B21F02A
:10023000004514464FF0000A23F0004150EA050241
:1002400020D054EA01021DD0C5F30A570246C5F377
:100250001303C1F31300C1F30A5640F4801543F4AD
:100260008013A7EB0608101BD64608F2FD3873EB87
:10027000050002D308F1010801E092185B41B8F1D2
:10028000000F03DA00200146BDE8F08D00204FF496
:100290008011064684460EE0171B73EB050705D355
:1002A000121B63EB050306434CEA010C49084FEAB5
:1002B000300092185B4150EA0107EDD152EA030089
:1002C00012D082EA040083EA0501084305D0101B1E
:1002D000AB4106D20122002306E000224FF000438A
:1002E00002E06FF0010253101AEB06004CEB0851CC
:1002F00010EB0A0041EB0B01BDE8F04D00F04FB8E8
:100300000EB5C10F80EAE0700844CA07002140F230
:1003100033438DE80E000A460B4600F04FF803B059
:1003200000BD70B5C1F30A5201F000450024C1F3CD
:10033000130140F2FF3341F480119A4201DA0020A8
:1003400070BD40F233439A42A2F2334203DC524280
:1003500000F015F800E090402C43F1D0404270BD11
:10036000202A04DB203A00FA02F100207047914075
:10037000C2F1200320FA03F3194390407047202A6A
:1003800004DB203A21FA02F00021704721FA02F33F
:10039000D040C2F12002914008431946704710B581
:1003A000141E73F1000408DA401C41F10001921898
:1003B0005B411A4301D120F0010010BD2DE9F04D41
:1003C00092469B4611B1B1FA81F202E0B0FA80F296
:1003D00020329046FFF7C4FF04460F4640EA0A0069
:1003E00041EA0B0153465A46084313D0114653EADB
:1003F000010019D0C8F140025046FFF7C0FF054682
:100400000E46504659464246FFF7AAFF084305D01C
:10041000012004E020463946BDE8F08D0020054368
:1004200046EAE0762C4337430A986305E40AA0EBDA
:1004300008000022FD0A44EA47540A3002D5002091
:100440000146E9E7010510196941DDE90845001990
:100450006941BDE8F04DA2E7064C074D06E0E068B3
:1004600040F0010394E8070098471034AC42F6D3FB
:10047000FFF78EFE005D0008205D0008FEE700002B
:1004800070470000EFF3108072B600BFFEE7000077
:10049000B0B582B020208DF8070040F27C00002427
:1004A0004FF6FF75C2F200000DF10702462101234D
:1004B000ADF80440009500F0EBFC18B1A0B202B01A
:1004C000B0BD00BF782000F027F840F27C00C2F2F7
:1004D000000001AA47210223009500F0D7F918B1C6
:1004E0000024A0B202B0B0BDBDF80400000400BA00
:1004F000FFF706FF9FED060B53EC102BFFF791FE65
:10050000FFF70FFF0446A0B202B0B0BD00BF00BFAE
:10051000333333333333F33FB0B5044600F0F4F8EC
:10052000054640F20000C2F200000078611C18BFCE
:10053000044400BF00F0E8F8401BA042FAD3B0BD6D
:100540002DE9F04F82B000F13E4241F6004502F144
:10055000FF77C4F2020508224FEAB726A84208BF77
:100560000722072E38BF4FEAB7224FF0010A0024B6
:1005700000274FF00008009208E000BF023708F1A2
:100580000108202F04F1040400F0B4800E680AFA78
:1005900008F916EA090FF1D0D1F804A00AF0030B0C
:1005A000ABF10106012E17D80322866802FA07FE76
:1005B000CA6826EA0E06BA40324382604268CAF32D
:1005C000001522EA090205FA08F54FEA480C6FEA1D
:1005D0000E062A4342600BE00322BA40D643BBF129
:1005E000030FBC4604D1BC464FF0030B22E000BF12
:1005F000C2688D68324005FA0CF52A43BBF1020F40
:10060000C26017D16FF0030202EA5802024404F0FC
:100610001C030F25D2F820E005FA03FA0D692EEA33
:100620000A0E05FA03F343EA0E031362D1F804A09D
:100630000AF0030B02680BFA0CF332401A431AF467
:10064000403F4FF0010A026098D0002243F6440375
:100650000192C4F202031A6843F6004E42F480424B
:100660001A601A68C4F2010E02F480420192019AE3
:1006700028F003024FF6084C7244CFF6FF7C52F884
:100680000C3004F00C060F25B540AB43009D05FA75
:1006900006F6334342F80C30DEF808204B6842EA95
:1006A000090643F60C4CDD0258BF22EA0906CEF8D3
:1006B0000860C4F2010CDCF800209D0242EA090641
:1006C00058BF22EA0906CCF80060DEF804209D033A
:1006D00042EA090658BF22EA0906CEF80460DEF8AD
:1006E0000020DB0342EA090658BF22EA0906CEF8D9
:1006F000006043E702B0BDE8F08F000000690840E9
:1007000018BF01207047000040F25C10C2F20000E8
:100710000068704770B5B8B3044690F83D0028B93A
:10072000002084F83C00204600F0DCFE242084F801
:100730003D002068016821F001010160016841F479
:1007400000410160016821F40041016001F08CF872
:1007500048F28041C0F21E0140F60013D4F804E0D4
:1007600088424FF00001C0F23D0348F2A16C4FF007
:10077000000238BF01219842C0F2010C38BF0122AB
:10078000E64538BF0A460AB1012070BD4DF68361C7
:10079000C4F21B31A0FB01122168950C4B684FF489
:1007A000967623F03F0343EA9243754344F6D356CB
:1007B0004B60C1F262060B6AA5FB0656B50923F031
:1007C0003F03E64538BF950C6A1C1A430A62CA69A2
:1007D00048F2A0664CF6FF73C0F20106B64522EA65
:1007E00003020BD801384FEA4E03B0FBF3F001309F
:1007F0006FF31F30042898BF04201EE0A36801385F
:1008000063B119230EFB03F3B0FBF3F001306FF378
:100810001F3078B100F5804008E000BF0EEB4E03BA
:10082000B0FBF3F001306FF31F3028B100F500404A
:1008300003E000BF012000E001201043C861086808
:10084000D4E9072320F0C0001043184308608868EB
:1008500048F2FF3204F10C0690434CCE184310438B
:10086000A5698860C86820F0FF0030432843C8604D
:10087000086840F00100086000202021206484F80E
:100880003D10206384F83E0070BD00002DE9F0416A
:1008900082B01F46164688460446FFF735FF94F897
:1008A0003D1020291CD1054620688169890713D590
:1008B000FFF72AFF401B1928F6D9002020212063CA
:1008C00084F83D1084F83E00216C41F02001216441
:1008D00084F83C0004E000BF94F83C10012903D1E7
:1008E000022002B0BDE8F081012184F83C100168CB
:1008F000C90703D1016841F001010160016821F4D9
:1009000000610160222184F83D10102184F83E101E
:100910000021216466626785618D21850021CFF603
:10092000FF71E162E16A026811F5803F42F4806282
:10093000026018BF012919D1016841F4807101607A
:100940004169089EC90724D1711C18D0002E00F0FF
:10095000CB8000BFFFF7D8FE401BB04200F2C6803C
:1009600020684169C907F5D013E000BF0829E3D02A
:10097000216B1129E0D0E3E74169C90709D1416939
:10098000C90706D14169C90704BF41695FEAC1715E
:10099000F2D02169B1F5804F08D148F00101C9B208
:1009A00001614169890740F1CC8003E1062101EA38
:1009B000D81707F1F00101614169090738D441698D
:1009C000721C01F4806113D0002940F0EA80002EEF
:1009D00000F01082FFF798FE401BB04200F20C823C
:1009E00020684169090723D441694905F2D5D8E057
:1009F000002940F0D6804169090719D441694905A9
:100A000000F1CF804169090712D44169490500F11D
:100A1000C880416909070BD44169490500F1C180CB
:100A20004169090704D441694905E4D5B9E000BF2B
:100A30005FFA88F101614169890739D44169721C03
:100A400001F4806114D0002940F0AB80002E00F04A
:100A5000D181FFF759FE401BB04200F2CD812068E2
:100A60004169890724D441694905F2D599E000BF5D
:100A7000002940F096804169890719D441694905E8
:100A800000F18F804169890712D44169490500F15D
:100A90008880416989070BD44169490500F181804B
:100AA0004169890704D441694905E4D579E000BF6B
:100AB00000210191416901918169019101990168C8
:100AC00041F4807101604169C90734D1711C28D09B
:100AD00056B1FFF719FE401BB04207D820684169A4
:100AE000C907F6D027E000BFFFF70EFE0020202147
:100AF000206384F83D1084F83E00216C41F0200111
:100B00002164216884F83C000868C00544BF4FF4A4
:100B100000702064012002B0BDE8F0814169C9077E
:100B200009D14169C90706D14169C90704BF4169B3
:100B30005FEAC171F2D047F0F101016141698907B3
:100B400038D44169721C01F4806111D049BB002E78
:100B500000F05081FFF7D8FD401BB04200F24C81FD
:100B600020684169890725D441694905F2D518E013
:100B7000B9B9416989071DD44169490511D4416951
:100B8000890717D4416949050BD44169890711D4F4
:100B90004169490505D4416989070BD44169490573
:100BA000E7D5016841F4007101606FF48061416133
:100BB000042022E1218D99B1022927D001292DD1CC
:100BC000026822F48062026000220192426901926E
:100BD00082690192019A026842F40072026028E080
:100BE0000021019141690191816901910199016897
:100BF00041F400710160202084F83D00002084F859
:100C00003E0084F83C0002B0BDE8F081026822F4A6
:100C100080620260026842F4006202E0026842F40C
:100C20008062026000220192426901928069019013
:100C3000019888B2032817D802283FD0012851D143
:100C4000002E00F099802068014651F8142F5206BA
:100C500000F196800868C00600F1F280FFF754FDAD
:100C6000401BB042EFD9E0E086B100BF20680146EA
:100C700051F8142F52060ED40868C00600F1E08027
:100C8000FFF742FD401BB042F0D9CEE02068416939
:100C9000490640F1C3800069616A0870606A218D6D
:100CA00001300139606221852268638D013B6385D3
:100CB00053695B0770D51169017064E02068416970
:100CC000490745D4711C6BD0002E00F0CD80FFF792
:100CD0001BFD401BB04200F2C980206841694907F2
:100CE000F5D535E02068416949070ED4711C65D0FF
:100CF000002E00F0B980FFF707FD401BB04200F264
:100D0000B580206841694907F5D5016821F4806103
:100D100001600069616A0870606A218D01300139E3
:100D2000606221852068618D0139618541694907CB
:100D30000ED4711C50D0002E00F09680FFF7E4FC1A
:100D4000401BB04200F29280206841694907F5D506
:100D5000016841F4007101600069616A0870606AAD
:100D60002268411C6162218D01392185618D013923
:100D700061851169417006E02068416949064DD5D9
:100D80000069616A0870606A218D01300139606212
:100D90002185608D0138608508047FF44AAF2AE719
:100DA00041694907D4D4416949075CBF41695FEA99
:100DB0004171CDD441694907F2D5C9E74169490775
:100DC000A3D4416949075CBF41695FEA41719CD482
:100DD00041694907F2D598E741694907B8D44169A3
:100DE00049075CBF41695FEA4171B1D44169490774
:100DF000F2D5ADE7FFF788FC2020002120222163F7
:100E000084F83D2084F83E10226C1043206484F85E
:100E10003C10012002B0BDE8F08100BF50F8141F63
:100E2000C90601460CD4FFF76FFC00202021206387
:100E300084F83D1084F83E00206C40F020000AE069
:100E40006FF01000086000202021206384F83D101E
:100E500084F83E00206C2064002084F83C000120CF
:100E600002B0BDE8F08100BFFFF74EFC002020215A
:100E7000206384F83D1084F83E00216C41F020018D
:100E8000216484F83C00012002B0BDE8F08100003C
:100E90002DE9F04381B01F46164688460446FFF709
:100EA00033FC94F83D10202920D105462068816943
:100EB000890717D5FFF728FC401B1928F6D9002011
:100EC0002021206384F83D1084F83E00216C022626
:100ED00041F02001216484F83C00304601B0BDE8B7
:100EE000F08300BF94F83C10012905D1022630465A
:100EF00001B0BDE8F08300BF012184F83C10016817
:100F0000C90703D1016841F001010160016821F4C2
:100F100000610160212184F83D10102184F83E1009
:100F20000021216466626785618D21850021CFF6ED
:100F3000FF71E162E16A11F5803F18BF012919D103
:100F4000016841F4807101604169DDF82090C907B2
:100F500023D119F1010116D0B9F1000F46D000BF1D
:100F6000FFF7D2FB401B484542D820684169C907BA
:100F7000F6D012E00829E3D0216B1229E0D0E3E794
:100F80004169C90709D14169C90706D14169C90742
:100F900004BF41695FEAC171F2D02169B1F5804FA8
:100FA00002D1FE2161E000BF062101EAD811F03133
:100FB00001614169090757D4416919F1010201F43E
:100FC00080612FD0002946D1B9F1000F00F0428195
:100FD000FFF79AFB401B484500F23E8120684169BB
:100FE000090741D441694905F2D534E0FFF78CFB8C
:100FF00000202021206384F83D1084F83E00216CFD
:10100000012641F020012164216884F83C00086831
:10101000C00544BF4FF400702064304601B0BDE805
:10102000F08300BFB9B9416909071DD44169490579
:1010300011D44169090717D4416949050BD44169A5
:10104000090711D44169490505D4416909070BD441
:1010500041694905E7D5016841F4007101606FF409
:10106000806141610420F8E0FF2101EA080101618B
:10107000416989073AD4416919F1010201F480619B
:1010800012D051BBB9F1000F00F0E080FFF73CFB3C
:10109000401B484500F2DC8020684169890725D45F
:1010A00041694905F2D518E0B9B9416989071DD4EC
:1010B0004169490511D44169890717D44169490536
:1010C0000BD44169890711D44169490505D44169A7
:1010D00089070BD441694905E7D5016841F40071DE
:1010E00001606FF4806141610420B6E00026009643
:1010F00041690091816900910099218D002900F0DA
:10110000958009F10108014651F8142F120635D4D3
:10111000B8F1000F16D0B9F1000F00F0AF8000BF9A
:101120000868400500F1B280FFF7EEFA401B484521
:1011300000F2A9802068014651F8142F1206EFD55D
:101140001CE000BF0A68520500F1A0800A68120680
:1011500014D40A68520500F199800A6812060DD469
:101160000A68520500F192800A68120606D40A68DD
:10117000520500F18B800A681206E3D5636A1946AE
:1011800011F8012B02616162618D01396185278D42
:101190000146A7F1010CA4F828C051F8142F5207FA
:1011A0000DD55FEA0C420AD05A78A7F1020C026111
:1011B0009A1C6262628D013A6285A4F828C00A68AE
:1011C00052072FD4B8F1000F14D0B9F1000F7BD023
:1011D0000868400500F18080FFF796FA401B4845FB
:1011E00077D82068014651F8142F5207F0D5B4F88B
:1011F00028C017E00A6852056ED40A68520711D455
:101200000A68520568D40A6852070BD40A68520566
:1012100062D40A68520705D40A6852055CD40A6889
:101220005207E7D55FEA0C417FF46DAF016841F4E6
:1012300000710160202084F83D0084F83E6084F84D
:101240003C60304601B0BDE8F08300BFFFF75CFAB8
:10125000202002E0FFF758FA2020002120222163FD
:1012600084F83D2084F83E10226C0126104320644F
:1012700084F83C10304601B0BDE8F08308684005B2
:1012800004D4FFF741FA202004E000BF6FF480602F
:101290000860042000212022216384F83D2084F886
:1012A0003E10226C1043206484F83C10206C04280B
:1012B00025D120680126016841F4007101603046A3
:1012C00001B0BDE8F08300BF0868400504D4FFF713
:1012D0001BFA202004E000BF6FF480600860042047
:1012E00000212022216384F83D2084F83E10226CE6
:1012F0001043206484F83C10206C0428D9D00126C7
:10130000304601B0BDE8F0832DE9F04383B0994643
:1013100016460F460446FFF7F7F994F83D102029CA
:101320001CD1054620688169890713D5FFF7ECF9C0
:10133000401B1928F6D900202021206384F83D1095
:1013400084F83E00216C41F02001216484F83C00C7
:1013500004E000BF94F83C10012903D1022003B03F
:10136000BDE8F083012284F83C200368DDE90B1816
:101370000A9ADB0703D1036843F0010303600368A3
:1013800023F400630360212084F83D00402084F8AA
:101390003E000020206462626185608D39462085B0
:1013A0000020CFF6FF70E062204632464B46CDF873
:1013B0000080019501F086F820B1012003B0BDE85E
:1013C000F08300BF208D002850D0206808F101066E
:1013D000014651F8142F12062CD49EB1B8F1000F1B
:1013E0005AD000BF086840055ED4FFF78DF9401B56
:1013F000404556D82068014651F8142F1206F1D501
:1014000018E000BF0A6852054ED40A68120611D4CB
:101410000A68520548D40A6812060BD40A685205B5
:1014200042D40A68120605D40A6852053CD40A68F8
:101430001206E7D5626A114611F8013B0361238D5C
:101440006162591E2185678D013F678547697F0766
:101450000AD50F0408D051780161911C6162991E70
:101460002185628D013A62850904B1D12046414649
:101470002A4601F061F938BB2068016841F4007127
:101480000160202084F83D00002084F83E0084F8AC
:101490003C0003B0BDE8F0830868400504D4FFF7C2
:1014A00033F9202004E000BF6FF48060086004205E
:1014B00000212022216384F83D2084F83E10226C14
:1014C0001043206484F83C10206C04287FF475AF2E
:1014D0002068016841F400710160012003B0BDE89B
:1014E000F0830000B0B586B0006845F60001C4F294
:1014F000000100248842CDE90444CDE9024401946E
:1015000030D045F20041C4F20001884253D100249A
:1015100043F630050094C4F20205286801A940F0A2
:1015200002002860286800F0020000900098C020A7
:1015300001901220CDE902040320049004200590BC
:1015400040F20040C4F20200FEF7FAFF009428695E
:1015500040F400102861286900F400100090009801
:1015600006B0B0BD43F630050094C4F20205286809
:1015700001A940F002002860286800F002000090F5
:1015800000984FF4406001901220CDE9020403203E
:1015900004900420059040F20040C4F20200FEF7DF
:1015A000CFFF0094286940F480002861286900F486
:1015B00080000090009806B0B0BD000040F200002E
:1015C00040F25C11C2F20000C2F2000100780A6829
:1015D000104408607047000080B543F60040C4F234
:1015E0000200016841F400710160016841F480610A
:1015F0000160016841F480710160032000F074F81B
:101600000F2000F005F800F027F8002080BD000052
:1016100070B540F20006C2F2000640F224013278B2
:10162000C2F200014FF47A730968B3FBF2F2044688
:10163000B1FBF2F1084600F031FB0F2C4FF0010531
:1016400008D838B94FF0FF3021460022002500F0BD
:101650001FF87460284670BD82B0002043F6400138
:101660000190C4F202014A6842F480424A604A682A
:1016700002F480420192019A0090086840F0805084
:101680000860086800F080500090009802B0704731
:1016900010B54EF60C5CCEF2000CDCF80030C3F353
:1016A000022E8EF00704042C28BF0424BEF103038D
:1016B0004FF0FF3E0EFA04F438BF0023A1439940D7
:1016C0000EFA03F39A43114300F00F02043A624406
:1016D00009010C3200F16043B0F1FF3FC8BF03F5D0
:1016E0006442117010BD00004EF60C51CEF20001A4
:1016F0000A684FF6FF031A4060F30A2242F0806046
:1017000040F0FD70086070472DE9F041002800F0BE
:101710008B8043F60808C4F202080446D8F8F803A0
:101720000D4600F00700884207D288F8F853D8F831
:10173000F80300F00700A84276D12068810717D58A
:10174000410705D5D8F8001041F4E051C8F8001061
:10175000010705D5D8F8001041F46041C8F8001021
:10176000D8F80010A26821F0F0011143C8F8001069
:10177000C0073FD1D8F8F80300F00700A84207D906
:1017800088F8F853D8F8F80300F00700A8424BD1C6
:101790002068410707D5D8F80010E26821F4E0512D
:1017A0001143C8F80010000708D5D8F800002169D7
:1017B00020F4604040EAC100C8F8000000F07CF866
:1017C000D8F8001043F6FA02C1F30311C0F6000284
:1017D000515C40F2240220FA01F140F20400C2F20E
:1017E00000000068C2F200021160FFF711FF002044
:1017F000BDE8F0816068811E022907D258F8081CF4
:1018000089015CBF0120BDE8F08111E0012807D10A
:1018100058F8081C89035CBF0120BDE8F08107E08F
:1018200058F8081C890703D40120BDE8F08100BFE7
:10183000D8F8001021F003010843C8F80000FEF7B3
:1018400063FF064641F28837D8F80000616800F06F
:101850000C00B0EB810F8DD0FEF756FF801BB84215
:10186000F2D90320BDE8F08140F2240043F60801DC
:10187000C2F20000C4F202010068096843F60A12CD
:10188000C1F38221C0F60002515CC84070470000DD
:1018900040F2240043F60801C2F20000C4F2020143
:1018A0000068096843F60A12C1F34231C0F600022B
:1018B000515CC8407047000010B543F60404C4F200
:1018C0000204606800F00C0008280BD0042819BF3F
:1018D00042F20040C0F2F40047F64000C0F27D1032
:1018E00010BD00BF206821682368490247F6400107
:1018F000C0F27D1100F03F02C3F388105CBF42F2DA
:101900000041C0F2F401A1FB00010023FEF758FCE6
:1019100021680222C1F3014102EB4101B0FBF1F069
:1019200010BD00002DE9F04182B000286AD00446C5
:10193000007843F60006C007C4F202060BD0B06878
:1019400000F00C00042840F0A1803068800302D52C
:101950006068002856D0207880071AD5B06810F04B
:101960000C0F09D0B06800F00C00082840F0A880E7
:101970007068400200F1A4803068800702D5E068FA
:1019800001283FD13068216920F0F80040EAC10009
:1019900030602078000739D4207840074ED4A569FC
:1019A0005DB3B06800F00C00082840F0BD80012D48
:1019B00028D07068E16900F480028A4222D1216A4D
:1019C00000F03F028A421DD147F6C071626A0140B1
:1019D000B1EB821F16D1A26A0023CFF6FF7303EB8F
:1019E000C23200F440316FF30F0291420AD1E16A32
:1019F00000F07060B0EB016F04D1002002B0BDE8D0
:101A0000F08100BF012002B0BDE8F08160690028CC
:101A100040F20000C4F2472076D00121C0F8801EB9
:101A2000FEF772FE054600BF706F8007B4D4FEF764
:101A30006BFE401B0228F7D9DDE000BF306C10F0D0
:101A400080580AD100200190306C40F08050306402
:101A5000306C00F080500190019847F20007C4F20A
:101A600000073868C00541D4386840F48070386099
:101A7000FEF74AFE054600BF3868C00536D4FEF7BB
:101A800043FE401B0228F7D9B5E000BFB06800F064
:101A90000C00082803D1706840023FF556AF60681B
:101AA000B0F5803F07D0B0F5A02F40F08D803068B2
:101AB00040F480203060306840F4803030608DE049
:101AC000E068002852D00020C4F2472001210160C4
:101AD000FEF71AFE054600BF306880073FF552AF9B
:101AE000FEF712FE401B0228F6D984E0A068012808
:101AF00005D005284ED1306F40F004003067306FBC
:101B000040F0010030674FE00021C0F8801EFEF772
:101B1000FBFD0546706F80077FF53EAFFEF7F4FDD5
:101B2000401B0228F6D966E00027C4F247270020B0
:101B30003866FEF7E9FD022D05460BD130688001BD
:101B40005ED5FEF7E1FD401B02284FF00300F5D9FA
:101B500054E700BF306880017FF54FAFFEF7D4FD3A
:101B6000401B02284FF00300F4D947E70020C4F2DD
:101B7000472000210160FEF7C7FD05463068800759
:101B80007FF507AFFEF7C0FD401B02284FF00300B2
:101B9000F4D933E7316F002821F001013167316F4B
:101BA00021F0040131674DD0FEF7AEFD054641F24C
:101BB000883700BF306F800756D4FEF7A5FD401B65
:101BC000B842F7D917E000BF3168002821F480310E
:101BD0003160316821F4802131604FD0FEF794FDEF
:101BE000054600BF306880033FF5B5AEFEF78CFDBB
:101BF000401B6428F6D9032002B0BDE8F08100BF85
:101C000004F11C052FCD08430021CFF6FF7140EAF7
:101C1000821001EBC3316FF30F0140EA0560084306
:101C2000706001203866FEF76FFD04463068800161
:101C30003FF5E3AEFEF768FD001B02284FF00300FE
:101C4000F4D9DBE6FEF760FD054641F2883700BFB8
:101C5000306F800708D5FEF757FD401BB8424FF0A4
:101C60000300F5D9CAE600BFB8F1000F7FF497AEC4
:101C7000306C20F08050306491E600BFFEF744FDE8
:101C8000054600BF306880037FF565AEFEF73CFD7A
:101C9000401B64284FF00300F4D9AFE6411E00203A
:101CA000B0EB116F1CBF012070474EF21002CEF254
:101CB000000251604EF62351CEF20001F0230B706A
:101CC0000721906011607047B0B590F83C20012A60
:101CD00004BF0220B0BD01F108053CCDD1E900CE22
:101CE00023F47C5322F470521A432EF4F0431A4327
:101CF0002CF4E0431A4324F4C0431A432A43C9692D
:101D000022F48042036811435964002180F83C109A
:101D10000846B0BD10B590F83C20012A4FF00202F1
:101D200051D080F83D200268D2F804E0D2F808C013
:101D30000C682EF07003234341F2FF74C4F20004D8
:101D4000A24253600EDC40F2FF73C4F200039A42D9
:101D500016DCB2F1804F2BD040F20043C4F20003F6
:101D600024E000BF40F2FF33C4F201039A4213DCC7
:101D700041F60003C4F200039A4219D0002313E095
:101D800040F60003C4F200039A4211D040F600432B
:101D9000C4F200030AE000BF44F20003C4F20103EE
:101DA0009A4205D040F20043C4F201039A4204D1A2
:101DB00049682CF08003194391600121002280F8CA
:101DC0003D1080F83C20104610BD0000002804BFE4
:101DD0000120704710B5044690F83D0028B9002056
:101DE00084F83C00204600F01FF8022084F83D00F3
:101DF0002068211D01F024FA012084F8460084F8AF
:101E00003E0084F83F0084F8400084F8410084F8E4
:101E1000420084F8430084F8440084F8450084F8C4
:101E20003D00002010BD000081B000680021C4F218
:101E30000101884202D001B0704700BF002000902D
:101E400043F64400C4F20200016841F00101016060
:101E5000006800F001000090009801B07047000099
:101E600080B590F83C20012A4FF0020200F0C280B9
:101E700080F83D20D0F800C04FF67772DCF80830CB
:101E800023EA0202CCF808200B684F2B28DC1F2B1A
:101E900044DD202B45D0302B43D0402B40F0AC808C
:101EA000D1F804E0C968DCF82030DCF8202022F00A
:101EB0000102CCF82020DCF8182022F0F00242EADF
:101EC000011123F00A0242EA0E02CCF81810CCF8F5
:101ED0002020DCF8081041F0470121F0300180E0BB
:101EE0006F2B27DDB3F5005F48D0B3F5805F7AD064
:101EF000702B40F08180D1E901E3C968DCF808204B
:101F000043EA0E0322F47F4243EA01211143CCF855
:101F10000810DCF8081041F0770162E00BB1102BDB
:101F20006AD1DCF8081021F07001194341F0070173
:101F300057E000BF502B35D0602B5DD1D1F804E0C5
:101F4000C968DCF8203023F01003CCF82030DCF82E
:101F50001830DCF8202023F4704322F0A00243EA7A
:101F6000013142EA0E12CCF81810CCF82020DCF82F
:101F7000081041F0670121F0100132E0D1E901E3DE
:101F8000C968DCF8082043EA0E0322F47F4243EAE2
:101F900001211143CCF80810DCF8081041F480410D
:101FA0001FE000BFD1F804E0C968DCF82030DCF89D
:101FB000202022F00102CCF82020DCF8182022F0AA
:101FC000F00242EA011123F00A0242EA0E02CCF8C2
:101FD0001810CCF82020DCF8081041F0570121F04F
:101FE0002001CCF808100022012180F83D100021CA
:101FF00080F83C10104680BD0122F5E72DE9F04144
:1020000090F83C30012B04BF0220BDE8F0814FEA7C
:10201000B202032A00F2FC80DFE802F0023E7EBE3C
:10202000036840F200471A6A43F4806522F0010217
:102030001A621C6A1A46D3F804E052F818CF8E6868
:1020400024F00204C4F20107BD4244EA060405D1AB
:10205000CE6824F00C0426F0040634430E68BD421A
:1020600007D1D1E905572EF4407E45EA0E0545EA31
:10207000070E2CF073073743C3F804E09F614F68E5
:1020800009695F631C629F6947F008079F619F6948
:1020900027F004079F61B1E0036840F200481A6A24
:1020A00043F4806522F010021A621C6A1A46D3F8C3
:1020B00004E052F818CF8F6824F02004C4F201081D
:1020C000454544EA071407D1CF686FF0400624F075
:1020D000C00406EA071634430F68454507D1D1E925
:1020E00005562EF4406E4EEA850545EA860E2CF420
:1020F000E64646EA0727C3F804E09F614F6809698E
:102100009F631C629F6947F400679F619F6927F482
:1021100080679F6171E000BF036840F200481A6A5F
:1021200043F4806522F480721A621C6A1A46D3F85E
:1021300004E052F81CCF8F6824F40074C4F2010844
:10214000454544EA072408D1CF6840F2FF463F02E4
:1021500024F4406427EA060634430F68454507D156
:10216000D1E905562EF4405E4EEA051545EA061EF5
:102170002CF073063743C3F804E0DF614F68096948
:10218000DF631C62DF6947F00807DF61DF6927F062
:102190000407DF6132E000BF036840F200451A6ABD
:1021A00043F4806722F480521A621A46D3F820C0A2
:1021B0005C6852F81CEFD1F800808E68C4F201050B
:1021C000AF4204D14D6924F4804444EA85142CF4D0
:1021D000005747EA06372EF4E64646EA08265C60D2
:1021E000DE614E6809691E641F62DF6947F400679B
:1021F000DF61DF6927F48067DF6109021368194333
:1022000011600021002280F83C200846BDE8F081E2
:102210000121002280F83C200846BDE8F081000042
:10222000002804BF0120704710B5044690F83D0017
:1022300028B9002084F83C00204600F01FF8022056
:1022400084F83D002068211D00F0FAFF012084F889
:10225000460084F83E0084F83F0084F8400084F88B
:10226000410084F8420084F8430084F8440084F874
:10227000450084F83D00002010BD000070470000BC
:1022800041B1082910D0042914BF00F1410200F126
:102290003F020BE090F83E20012A1CBF012070474E
:1022A000022280F83E2013E000F140021278012A59
:1022B0001CBF012070470222082907D0042914BF3F
:1022C00080F8412080F83F2002E000BF80F84020E5
:1022D000006801F01F010122036A02FA01F123EAFA
:1022E00001020262026A114341F2FF72C4F200026B
:1022F000904201620CDC40F2FF71C4F2000188429E
:1023000014DCB0F1804F37D040F2004116E000BF3E
:1023100040F2FF31C4F20101884215DC41F60001B0
:10232000C4F20001884227D0002115E040F60001E8
:10233000C4F2000188421FD040F60041C4F20001FF
:10234000884219D01FE000BF44F20001C4F201012D
:10235000884211D040F20041C4F20101884212D1FA
:10236000416C40F2004340F48062C4F2010341F446
:1023700000419A42416406D1816801F007010629B3
:1023800004BF00207047016841F001010160002096
:1023900070470000002804BF0120704710B50446B4
:1023A00090F83D0028B9002084F83C00204600F059
:1023B00021F8242084F83D002068C16821F40051F0
:1023C000C160204600F0DAFF2068016921F49041E5
:1023D0000161416921F02A014161C16841F4005164
:1023E000C16000202021206484F83D1084F83E1054
:1023F00010BD000080B586B0016841F20000C4F253
:102400000100814202D006B080BD00BF002143F62A
:1024100030020191C4F20202536900F5704043F0AA
:1024200010035361536903F010030193019B019161
:10243000136843F001031360126802F00102019275
:10244000019A4FF4C06201920222CDE902210321D8
:1024500004910721059101A9FEF772F806B080BD2D
:1024600090F83E30202B0BD100294FF0010318BF0C
:10247000002A01D11846704790F83C30012B01D159
:102480000220704700230363816222218285C28576
:10249000036480F83E100269016880F83C301AB18C
:1024A000C86840F48070C8604869002340F00100AB
:1024B0004861C86840F02000C860184670470000B6
:1024C000FEE700002DE9F04381B004460068904625
:1024D0000268099D42F4807202604269089E994632
:1024E000D2070F461DD1711C11D0002E00F0D280F2
:1024F000FEF70AF9401BB04200F2CE802068416925
:10250000C907F5D00DE000BF4169C90709D141698C
:10251000C90706D14169C90704BF41695FEAC171B2
:10252000F2D007F0FE0101614169890738D44169A1
:10253000721C01F4806111D049BB002E00F0E880CC
:10254000FEF7E2F8401BB04200F2E48020684169E7
:10255000890725D441694905F2D518E0B9B941691F
:1025600089071DD44169490511D44169890717D4E8
:10257000416949050BD44169890711D4416949056D
:1025800005D4416989070BD441694905E7D501683C
:1025900041F4007101606FF4806141610420BAE090
:1025A00000210091014651F8142F00924A680092D0
:1025B000009A0A6812061ED4002E00F08580721C54
:1025C0004DD10A68520500F187800A68120612D4BC
:1025D0000A68520500F180800A6812060BD40A6866
:1025E000520579D40A68120605D40A68520573D4D4
:1025F0000A681206E5D5B9F1010F43D04FEA182158
:102600000161014651F8142F12063BD4002E5BD015
:10261000721C29D10A6852055ED40A68120631D4A8
:102620000A68520558D40A6812062BD40A68520563
:1026300052D40A68120625D40A6852054CD40A6896
:102640001206E7D51EE000BFFEF75EF8401BB04261
:102650003FD82068014651F8142F1206CBD40868E1
:102660004005F1D538E000BF0868400534D4FEF7D6
:102670004BF8401BB0422CD82068014651F8142F6B
:102680001206F1D55FFA88F10161002001B0BDE8C2
:10269000F08300BFFEF738F800202021206384F883
:1026A0003D1084F83E00216C41F020012164216836
:1026B00084F83C000868C00544BF4FF400702064F3
:1026C000032001B0BDE8F0830868400504D4FEF79C
:1026D0001BF8202004E000BF6FF480600860042035
:1026E00000212022216384F83D2084F83E10226CD2
:1026F0001043206484F83C10206C042817D1206813
:10270000016841F400710160012001B0BDE8F0836F
:10271000FDF7FAFF202000212022216384F83D20CC
:1027200084F83E10226C1043206484F83C10012091
:1027300001B0BDE8F083000070B50368044653F8AB
:10274000140F400737D40E46F1B1701C24D100BFDE
:102750001868400532D4186840072CD41868400522
:102760002CD41868400726D41868400526D4186869
:10277000400720D41868400520D4186840074FF05F
:10278000000048BF70BDE3E71868400516D4FDF7A8
:10279000BBFF202016E000BF154600BF18684005AB
:1027A0000CD4FDF7B1FF401BB042F2D8236853F8B8
:1027B000140F4007F2D5002070BD00BF6FF4806099
:1027C0001860042000212022216384F83D2084F831
:1027D0003E10226C10432064012084F83C1070BD30
:1027E00080B586B0002043F63001CDE904000090AA
:1027F000C4F202010A6842F010020A600A6802F09C
:1028000010020092009A00900A6842F004020A60E6
:102810000A6802F004020092009A00900A6842F0EE
:1028200080020A600A6802F080020092009A00901A
:102830000A6842F002020A600A6802F0020200928C
:10284000009A00900A6842F001020A60096801F0EB
:102850000101009100997821CDE901100120039038
:1028600041F20000C4F2020001A9FDF769FE06B0C2
:1028700080BD000080B540F2280045F20041C2F260
:102880000000C4F2000148F2A06200234FF4804C23
:10289000C0F2010280E80E00C0E9033CC0E9053344
:1028A000C0E90733FDF736FF002808BF80BDBDE84B
:1028B0008040FDF7E7BD000080B540F27C0045F6A2
:1028C0000001C2F20000C4F2000148F2A06200233D
:1028D0004FF4804CC0F2010280E80E00C0E9033CD6
:1028E000C0E90533C0E90733FDF714FF002808BF2E
:1028F00080BDBDE88040FDF7C5BD0000B0B59CB00F
:10290000002540F2D000C4F201050021C2F200000F
:10291000472244F61F631691CDE914111191CDE9B8
:102920000F11CDE90D11CDE90B11CDE90911CDE95B
:102930000711CDE90511CDE90311CDE90111C0E978
:102940000052C0E90213C0E904118161FFF73EFAA9
:10295000002818BFFDF796FD4FF48050139040F209
:10296000D000C2F2000013A9FFF77AFA002818BFBE
:10297000FDF788FD40F2D000C2F20000FFF750FCE6
:10298000002818BFFDF77EFD40F2D0000024C2F2FF
:10299000000010A9CDE91044FFF7BCF9002818BFCA
:1029A000FDF770FD602009904FF4FA70CDE90A043C
:1029B00040F2D000C2F2000009A90022CDE90C4487
:1029C000CDE90E44FFF71AFB002818BFFDF75AFDAA
:1029D00040F2D00400204FF40051C2F200040590F0
:1029E000CDE90300CDE901000691089001A9204638
:1029F000FFF76AF9002818BFFDF744FD2068A842D8
:102A000002D01CB0B0BD00BF002043F630011790CB
:102A1000C4F202010A6842F010020A60096801F07B
:102A20001001179117994FF4007117910221CDE908
:102A300018101A9001201B9005F5883017A9FDF792
:102A40007FFD1CB0B0BD000080B540F2181041F20F
:102A50000001C2F20000C4F2010100234FF00C0C8F
:102A60004FF4E13280E80E00C0E90333C0E905C34A
:102A7000C361FFF78FFC002808BF80BDBDE8804020
:102A8000FDF700BDFEE70000FEE700002DE9F04F76
:102A900085B040F2280400254FF480760127C2F269
:102AA00000040DF1120B0DF113084FF0000900BFE7
:102AB00009F1B0008DF8100004A8CDE90007204608
:102AC0007821002201230296FEF71EFC0DF1110071
:102AD000CDE9000720467821002201238DF811500E
:102AE0000296FEF711FC10208DF812002046782186
:102AF00000220123CDE900B70296FEF705FC4FF056
:102B0000000A00BF20467821402201238DF813508F
:102B1000CDE900870296FEF7F7FB0AF101004FFAB4
:102B200080FABAF1FF3FEDDCB9F1070F09F10109B5
:102B3000BED305B0BDE8F08F80B5C820FDF7ECFC32
:102B4000BDE8804000F08EBC2DE9F04F89B006460C
:102B500040B20D460028A2F1200744BF02350026EE
:102B6000102BA5F1500040F03F8140F228048DF871
:102B700018004FF0010B06A8C2F200044FF4807851
:102B8000CDE9000B2046782100220123CDF80880F2
:102B9000FEF7BAFB3009103005908DF819000DF1E1
:102BA0001900CDE9000B2046782100220123CDF841
:102BB0000880FEF7A9FB06F00F0004908DF81A00BC
:102BC0000DF11A00CDE9000B2046782100220123E7
:102BD000CDF80880FEF798FBF8B243F63A320101CF
:102BE000C0F60002515C02EB00168DF81B100DF1CF
:102BF0001B072046782140220123CDE9007BCDF838
:102C00000880FEF781FB7078317996F802A096F87B
:102C1000039003918DF81B00204678214022012368
:102C2000CDE9007BCDF80880FEF76EFB20467821C9
:102C3000402201238DF81BA0CDE9007BCDF8088050
:102C4000FEF762FB20467821402201238DF81B907D
:102C5000CDE9007BCDF80880FEF756FB039878217C
:102C60008DF81B00204640220123CDE9007BCDF8E2
:102C70000880FEF749FB707978218DF81B0020460B
:102C800040220123CDE9007BCDF80880FEF73CFB14
:102C9000B07978218DF81B00204640220123CDE930
:102CA000007BCDF80880FEF72FFBF07978218DF8B6
:102CB0001B00204640220123CDE9007BCDF808808F
:102CC000FEF722FBA5F14F008DF81C0007A8CDE907
:102CD000000B2046782100220123CDF80880FEF762
:102CE00013FB059878218DF81D000DF11D00CDE92D
:102CF000000B204600220123CDF80880FEF704FBDC
:102D0000049878218DF81E000DF11E00CDE9000B0E
:102D1000204600220123CDF80880FEF7F5FA307A2C
:102D20000DF11F058DF81F00204678214022012358
:102D3000CDE9005BCDF80880FEF7E6FA707A7821DD
:102D40008DF81F00204640220123CDE9005BCDF81D
:102D50000880FEF7D9FAB07A78218DF81F00204656
:102D600040220123CDE9005BCDF80880FEF7CCFAC4
:102D7000F07A78218DF81F00204640220123CDE90A
:102D8000005BCDF80880FEF7BFFA307B78218DF824
:102D90001F00204640220123CDE9005BCDF80880CA
:102DA000FEF7B2FA707B78218DF81F002046402292
:102DB0000123CDE9005BCDF80880FEF7A5FAB07BD2
:102DC00078218DF81F00204640220123CDE9005BC9
:102DD000CDF80880FEF798FAF07BCDE9005B8DF81E
:102DE0001F0020468AE000BF40F2280B8DF820002B
:102DF0004FF0010A08A8C2F2000B4FF48078CDE929
:102E0000000A5846782100220123CDF80880FEF7F9
:102E10007BFA300910308DF821000DF12100CDE949
:102E2000000A5846782100220123CDF80880FEF7D9
:102E30006BFA06F00F008DF822000DF12200CDE9AB
:102E4000000A5846782100220123CDF80880FEF7B9
:102E50005BFAF8B2400043F6121150FA87F0C0F660
:102E6000000111F8102001EB40078DF823200DF12F
:102E700023065846782140220123CDE9006ACDF887
:102E80000880FEF741FA7878BD78FC7897F80490CE
:102E90008DF823005846782140220123CDE9006AAD
:102EA000CDF80880FEF730FA5846782140220123F9
:102EB0008DF82350CDE9006ACDF80880FEF724FA9A
:102EC00058467821402201238DF82340CDE9006A3D
:102ED000CDF80880FEF718FA5846782140220123E1
:102EE0008DF82390CDE9006ACDF80880FEF70CFA42
:102EF0007879CDE9006A8DF8230058467821402280
:102F00000123CDF80880FEF7FFF909B0BDE8F08F86
:102F10002DE9F04F87B00646A1F1500040F2280598
:102F20008DF81400012705A8C2F20005144604918B
:102F30004FF4807ACDE9000728467821002201234A
:102F4000CDF808A0FEF7E0F9300900F110080DF106
:102F50001500CDE9000728467821002201238DF8CD
:102F60001580CDF808A0FEF7CFF90DF1160006F098
:102F70000F0BCDE9000728467821002201238DF8A8
:102F800016B0CDF808A0FEF7BFF944F21A11C4EB51
:102F90000420C0F6000101EB40064FF0FF340DF1B4
:102FA000170900BF3019407878218DF8170028469E
:102FB00040220123CDE90097CDF808A0FEF7A4F93F
:102FC00001341F2CEED1049840F228044F388DF8BC
:102FD00018004FF0010A06A8C2F200044FF48079ED
:102FE000CDE9000A2046782100220123CDF808907F
:102FF000FEF78AF90DF11900CDE9000A2046782183
:10300000002201238DF81980CDF80890FEF77CF995
:103010000DF11A00CDE9000A204678210022012393
:103020008DF81AB0CDF80890FEF76EF9FE250DF177
:103030001B0700BF7019407878218DF81B002046CF
:1030400040220123CDE9007ACDF80890FEF75CF923
:103050000135B5F58F7FEDD107B0BDE8F08F0000E9
:103060002DE9F04F85B0002B049103907CD00E9891
:103070001C464508981E009058421746591E4FF0AE
:1030800000085FFA80FB42F2107900264FF0000A38
:103090000291019212E000BF0126039940F0300234
:1030A00005FB08110E9BC8B20499D2B2FFF74CFD84
:1030B00008F10108A0450AF1010A55D06FEA0A009B
:1030C000C0B2584502D101202AE000BF00996FEA42
:1030D0000800A1EB0801C9B2032900EB040101D2E9
:1030E000012009E001F0FC02002301200433DFB2DB
:1030F000974200FB09F0F9D1019F11F003010FD0B5
:10310000012903D100EB8000400009E04FF47A72FE
:10311000424302294FF0640108BF00FB01F2104650
:10312000B7FBF0F04CF6CD41CCF6CC41A0FB011240
:10313000D10801EB8101002EA0EB4100ADD1029935
:103140004145AADD0028A7D10398049905FB080092
:103150000E9BC0B22022FFF7F7FC002608F1010801
:10316000A0450AF1010AA9D105B0BDE8F08F000021
:103170007047000070470000FEF720BAB0B592B06B
:10318000002443F640000B94CDE90944CDE90744FF
:103190000594CDE90344CDE901440094C4F2020052
:1031A0000168022541F080510160006800F0805004
:1031B0000090009847F200000094C4F200000168FB
:1031C00041F480410160006800F480400090009864
:1031D0000120099010200A9008200E90A820CDE927
:1031E0000F050420119006A80695CDE90C54FEF7B2
:1031F00099FB28B1EFF3108072B600BFFEE700BF65
:103200000F20CDE901054FF4A05004904FF48050F9
:10321000059001A805210394FEF776FA20B1EFF39B
:10322000108072B6FEE700BF12B0B0BD4EF68850F7
:10323000CEF20000016841F47001016070470000A7
:1032400010B540F6FF3E0368C4F2000E40F2004C99
:103250007045C4F2010C27DCB0F1804F31D040F250
:103260000042C4F2000290422BD040F60002C4F2A9
:103270000002904225D041F6FF72C4F20002904253
:1032800029DC70453CDCB0F1804F5FD040F2004259
:10329000C4F20002904259D040F60002C4F200028B
:1032A000904253D056E000BF40F60042C4F2000204
:1032B000904206D0604504D00022C4F20102904240
:1032C000D9D14A6823F07003134341F6FF72C4F268
:1032D00000029042D5DD43F6FF72C4F20102904233
:1032E00022DC42F20002C4F2000290422ED0002200
:1032F000C4F20102904229D0604527D02AE000BFE5
:1033000040F60042C4F2000290421FD041F6000293
:10331000C4F20002904219D041F60042C4F2000209
:10332000904213D016E000BF44F20002C4F2010242
:1033300090420BD044F60002C4F20102904205D044
:1033400044F20042C4F20102904203D1CA6823F45D
:103350004073134323F080024B69D1F800E08C687E
:103360001A430260C46240F48062C0F828E06245FB
:1033700004BF096901630121416110BD10B5044614
:103380000068D4E902C22369016921F44051114364
:103390000161626943EA0C01E3691143C2681943A0
:1033A00049F20C639A431143C1604169A26921F457
:1033B000407141F20043114340F48062C4F20103C2
:1033C0009A42416102D1FEF763FA01E0FEF74CFA3E
:1033D000E16963681922B1F5004FA0FB02011FD11A
:1033E0005A00DB0FFCF7ECFE48F21F51C5F2EB115F
:1033F000A0FB01235A096FF0630302FB0300322391
:1034000003EBC000A0FB01014FF4F87000EA1110BB
:1034100000EB0210C1F3421108442168886010BD1E
:103420009A009B0FFCF7CCFE48F21F51C5F2EB113E
:10343000A0FB01235A096FF0630302FB0300322350
:1034400003EB0010A0FB0101F02000EA511000EB9B
:103450000210C1F3431108442168886010BD0000C8
:10346000FEE70000F0B583B040F2280440F2080700
:10347000C2F200044FF480750126C2F20007204614
:10348000782100220123CDE900760295FDF73CFF6B
:10349000781CCDE900062046782100220123029500
:1034A000FDF732FFB81CCDE9000620467821002246
:1034B00001230295FDF728FFF81CCDE90006204600
:1034C0007821002201230295FDF71EFF381DCDE96A
:1034D000000620467821002201230295FDF714FF03
:1034E000781DCDE9000620467821002201230295AF
:1034F000FDF70AFFB81DCDE900062046782100221D
:1035000001230295FDF700FFF81DCDE900062046D6
:103510007821002201230295FDF7F6FE07F108004D
:10352000CDE9000620467821002201230295FDF70F
:10353000EBFE07F10900CDE90006204678210022C4
:1035400001230295FDF7E0FE07F10A00CDE9000630
:1035500020467821002201230295FDF7D5FE07F1D0
:103560000B00CDE9000620467821002201230295B8
:10357000FDF7CAFE07F10C00CDE9000620467821D0
:10358000002201230295FDF7BFFE07F10D00CDE9F2
:10359000000620467821002201230295FDF7B4FEA3
:1035A00007F10E00CDE90006204678210022012314
:1035B0000295FDF7A9FE07F10F00CDE900062046B0
:1035C0007821002201230295FDF79EFE07F11000ED
:1035D000CDE9000620467821002201230295FDF75F
:1035E00093FE07F11100CDE9000620467821002264
:1035F00001230295FDF788FE07F11200CDE90006D0
:1036000020467821002201230295FDF77DFE07F177
:103610001300CDE9000620467821002201230295FF
:10362000FDF772FE07F11400CDE90006204678216F
:10363000002201230295FDF767FE07F11500CDE991
:10364000000620467821002201230295FDF75CFE4A
:1036500007F11600CDE9000620467821002201235B
:103660000295FDF751FE07F11700CDE9000620464F
:103670007821002201230295FDF746FE07F118008C
:10368000CDE9000620467821002201230295FDF7AE
:103690003BFE07F11900CDE9000620467821002203
:1036A00001230295FDF730FE07F11A00CDE900066F
:1036B00020467821002201230295FDF725FE03B064
:1036C000F0BD000010B540F2D004C2F20004204664
:1036D0000021FEF7D5FD20684FF4FA71416310BD5B
:1036E00082B041F20004C4F20204FDF775FFFFF757
:1036F00045FDFFF775F8FFF7BDF8FFF7A5F9FFF7F0
:10370000DBF8FFF7FBF8FFF717FAFFF7BFF9202008
:1037100000210022FFF7FCFB302000210122FFF7EF
:10372000F7FB402000210222FFF7F2FB502000218E
:103730000322FFF7EDFB202002210422FFF7E8FB24
:10374000302002210522FFF7E3FB40200221062260
:10375000FFF7DEFB502002210722FFF7D9FB0020F4
:1037600004210822FFF7D4FB1020042109224FF086
:103770001008FFF7CDFB002006210A22FFF7C8FB47
:10378000102006210B22FFF7C3FB382006210C2254
:10379000FFF7BEFB482006210D22FFF7B9FB58209A
:1037A00006213A221023FFF7CFF940F21819C2F28E
:1037B00000090DF1070604E06420FCF7ADFE00F0FF
:1037C0007FF8484631460122FEF74AFE9DF8075031
:1037D000FCF75EFE0746202004213A460823CDF878
:1037E0000080FFF73DFC682004214C221023FFF7E6
:1037F000ABF97020042175221023FFF7A5F978207A
:10380000042178221023FFF79FF920462021FCF79E
:1038100075FF78B320464021FCF770FF0028D0D117
:103820006020062148221023FFF78EF96820062128
:1038300061221023FFF788F9702006216E221023E1
:10384000FFF782F97820062164221023FFF77CF924
:1038500020461021FCF752FF002818BF012DABD0E5
:1038600020460821FCF74AFF002818BF002DA8D1E8
:1038700064201AE06020062141221023FFF764F93A
:103880006820062175221023FFF75EF970200621BB
:1038900074221023FFF758F9782006216F22102395
:1038A000FFF752F9312F05D8C820FCF735FEFFF796
:1038B00009FF86E7322F3FF484AFC8207DE7000080
:1038C00010B540F2D004C2F2000420460021FEF7F9
:1038D000D7FC206840F6C411416310BD02E008C85F
:1038E000121F08C1002AFAD170477047002001E07A
:1038F00001C1121F002AFBD1704700000000000028
:10390000000001020304060708090000000001028C
:1039100003040000000000000000002F0000000071
:103920000700070000147F147F1400242A7F2A1246
:103930000062640813230036495522500000050335
:10394000000000001C224100000041221C00001465
:10395000083E08140008083E0808000000A06000A7
:103960000008080808080000606000000020100837
:103970000402003E5149453E0000427F40000042A3
:1039800061514946002141454B31001814127F1006
:10399000002745454539003C4A4949300001710935
:1039A000050300364949493600064949291E0000E9
:1039B0003636000000005636000000081422410090
:1039C00000141414141400004122140800020151C0
:1039D000090600324959513E007C1211127C007FC9
:1039E00049494936003E41414122007F4141221C64
:1039F000007F49494941007F09090901003E4149C9
:103A0000497A007F0808087F0000417F41000020BC
:103A100040413F01007F08142241007F4040404068
:103A2000007F020C027F007F0408107F003E4141AE
:103A3000413E007F09090906003E4151215E007F99
:103A4000091929460046494949310001017F010110
:103A5000003F4040403F001F2040201F003F4038B3
:103A6000403F0063140814630007087008070061F2
:103A70005149454300007F41410000552A552A55D0
:103A8000000041417F000004020102040040404068
:103A90004040000001020400002054545478007F8C
:103AA0004844443800384444442000384444487F63
:103AB00000385454541800087E0901020018A4A4C8
:103AC000A47C007F080404780000447D400000408E
:103AD00080847D00007F102844000000417F40006A
:103AE000007C04180478007C0804047800384444FE
:103AF000443800FC242424180018242418FC007CDA
:103B00000804040800485454542000043F44402052
:103B1000003C4040207C001C2040201C003C4030E9
:103B2000403C004428102844001CA0A0A07C004475
:103B300064544C44141414141414000000000000C5
:103B400000000000000000000000000000F800007D
:103B50000000000000333000000000100C06100CC4
:103B60000600000000000000000040C07840C0785F
:103B70004000043F04043F040400007088FC083047
:103B80000000001820FF211E0000F008F000E018DF
:103B9000000000211C031E211E0000F00888700098
:103BA00000001E2123241927211010160E000000EA
:103BB00000000000000000000000000000E0180409
:103BC0000200000000071820400000020418E00076
:103BD00000000040201807000000404080F08040B6
:103BE00040000202010F01020200000000F000008C
:103BF00000000101011F01010100000000000000A0
:103C0000000080B070000000000000000000000014
:103C1000000000010101010101010000000000009D
:103C20000000003030000000000000000000806054
:103C30001804006018060100000000E010080810D9
:103C4000E000000F102020100F00001010F80000FE
:103C500000000020203F2020000000700808088895
:103C60007000003028242221300000300888884865
:103C700030000018202020110E000000C02010F895
:103C8000000000070424243F240000F80888880866
:103C900008000019212020110E0000E0108888186B
:103CA0000000000F112020110E0000380808C8384D
:103CB00008000000003F000000000070880808882D
:103CC0007000001C222121221C0000E010080810B6
:103CD000E0000000312222110F00000000C0C000EF
:103CE00000000000003030000000000000800000F4
:103CF00000000000806000000000000080402010F4
:103D000008000001020408102000404040404040EC
:103D1000400004040404040404000008102040804F
:103D20000000002010080402010000704808080884
:103D3000F0000000003036010000C030C828E81054
:103D4000E0000718272423140B000000C038E0000F
:103D50000000203C23020227382008F88888887059
:103D60000000203F202020110E00C0300808080865
:103D70003800071820202010080008F8080808104C
:103D8000E000203F202020100F0008F88888E80875
:103D90001000203F20202320180008F88888E80819
:103DA0001000203F200003000000C0300808083841
:103DB000000007182020221E020008F80800000852
:103DC000F808203F210101213F20000808F80808D9
:103DD00000000020203F2020000000000808F80814
:103DE0000800C08080807F00000008F888C0281884
:103DF0000800203F20012638200008F808000000B5
:103E00000000203F20202020300008F8F800F8F8BB
:103E10000800203F003F003F200008F830C00008A5
:103E2000F808203F200007183F00E010080808109D
:103E3000E0000F10202020100F0008F808080808E4
:103E4000F000203F210101010000E01008080810E7
:103E5000E0000F18242438504F0008F8888888881C
:103E60007000203F2000030C3020007088080808F4
:103E700038000038202121221C00180808F8080802
:103E800018000000203F2000000008F8080000088B
:103E9000F808001F202020201F000878880000C894
:103EA0003808000007380E010000F80800F8000884
:103EB000F800033C0700073C03000818688080688E
:103EC000180820302C03032C30200838C800C838CC
:103ED00008000000203F2000000010080808C83833
:103EE00008002038262120201800000000FE0202D1
:103EF00002000000007F40404000000C30C0000085
:103F00000000000000010638C00000020202FE00AE
:103F10000000004040407F00000000000402020258
:103F2000040000000000000000000000000000008D
:103F30000000808080808080808000020204000079
:103F40000000000000000000000000008080808071
:103F500000000019242222223F2008F8008080005F
:103F60000000003F112020110E0000000080808022
:103F70000000000E11202020110000000080808829
:103F8000F800000E112020103F200000808080806B
:103F90000000001F222222221300008080F0888867
:103FA00088180020203F20200000000080808080B2
:103FB0008000006B94949493600008F800808080E7
:103FC0000000203F210000203F2000809898000042
:103FD00000000020203F2020000000000080989872
:103FE000000000C08080807F000008F80000808012
:103FF0008000203F24022D302000000808F8000037
:1040000000000020203F20200000808080808080F1
:104010008000203F20003F20003F80800080808083
:104020000000203F210000203F2000008080808091
:104030000000001F202020201F00808000808000C2
:10404000000080FFA12020110E0000000080808071
:104050008000000E112020A0FF80808080008080E2
:10406000800020203F21200001000000808080800F
:1040700080000033242424241900008080E0808004
:1040800000000000001F2020000080800000008051
:104090008000001F202020103F20808080000080B2
:1040A000808000010E3008060100808000800080C2
:1040B00080800F300C030C300F0000808000808067
:1040C00080000020312E0E31200080808000008092
:1040D000808080818E701806010000808080808042
:1040E00080000021302C2221300000000000807C64
:1040F000020200000000003F40400002027C8000FD
:1041000000000040403F0000000000000000FF00F1
:10411000000000000000FF000000109453321E3227
:104120005210007E4242427E00000000000000006B
:10413000000000000000000000000000000000007F
:10414000000000000000000000000000000000006F
:10415000000000000000000000000000000000005F
:10416000000000000000000000000000000000004F
:10417000000000000000000000000000000000003F
:10418000000000000000000000000000000000002F
:10419000000000000000000000000000000000001F
:1041A000000000000000000000000000000000000F
:1041B00000000000000000000000000000000000FF
:1041C00000000000000000000000000000000000EF
:1041D00000000000000000000000000000000000DF
:1041E00000000000000000000000000000000000CF
:1041F00000000000000000000000000000000000BF
:1042000000000000000000000000000000000000AE
:10421000000000000000000000000000FF494949C4
:1042200049494949FF00000000000000000000006B
:10423000000000000000000000000000000000007E
:10424000000000000000000000000000000000006E
:10425000000000000000000000000000000000005E
:10426000000000000000000000000000000000004E
:10427000000000000000000000000000000000003E
:10428000000000000000000000000000000000002E
:10429000000000000000000000000000000000001E
:1042A000000000000000000000000000000000000E
:1042B00000000000000000000000000000000000FE
:1042C00000000000000000000000000000000000EE
:1042D00000000000000000000000000000000000DE
:1042E00000000000000000000000000000000000CE
:1042F00000000000000000000000000000000000BE
:1043000000000000000000000000000000000000AD
:10431000000000000000000008CC4A49484ACC18C0
:10432000007F88888482E000000000000000000018
:10433000000000000000000000000000000000007D
:10434000000000000000000000000000000000006D
:10435000000000000000000000000000000000005D
:10436000000000000000000000000000000000004D
:10437000000000000000000000000000000000003D
:10438000000000000000000000000000000000002D
:10439000000000000000000000000000000000001D
:1043A000000000000000000000000000000000000D
:1043B00000000000000000000000000000000000FD
:1043C00000000000000000000000000000000000ED
:1043D00000000000000000000000000000000000DD
:1043E00000000000000000000000000000000000CD
:1043F00000000000000000000000000000000000BD
:1044000000000000000000000000000000000000AC
:104410000000000000000000FF121252927F000016
:104420007E88888482E00000000000000000000018
:10443000000000000000000000000000000000007C
:10444000000000000000000000000000000000006C
:10445000000000000000000000000000000000005C
:10446000000000000000000000000000000000004C
:10447000000000000000000000000000000000003C
:10448000000000000000000000000000000000002C
:10449000000000000000000000000000000000001C
:1044A000000000000000000000000000000000000C
:1044B00000000000000000000000000000000000FC
:1044C00000000000000000000000000000000000EC
:1044D00000000000000000000000000000000000DC
:1044E00000000000000000000000000000000000CC
:1044F00000000000000000000000000000000000BC
:1045000000000000000000000000000000000000AB
:10451000000000000000100CC4544C64D546444414
:104520004C54C4140C000000000000000000000007
:10453000000000000000000000000000000000007B
:10454000000000000000000000000000000000006B
:10455000000000000000000000000000000000005B
:10456000000000000000000000000000000000004B
:10457000000000000000000000000000000000003B
:10458000000000000000000000000000000000002B
:10459000000000000000000000000000000000001B
:1045A000000000000000000000000000000000000B
:1045B00000000000000000000000000000000000FB
:1045C00000000000000000000000000000000000EB
:1045D00000000000000000000000000000000000DB
:1045E00000000000000000000000000000000000CB
:1045F00000000000000000000000000000000000BB
:1046000000000000000000000000000000000000AA
:1046100000000000000000FF40446255495543403F
:1046200040FF00000000000000000000000000004B
:10463000000000000000000000000000000000007A
:10464000000000000000000000000000000000006A
:10465000000000000000000000000000000000005A
:10466000000000000000000000000000000000004A
:10467000000000000000000000000000000000003A
:10468000000000000000000000000000000000002A
:10469000000000000000000000000000000000001A
:1046A000000000000000000000000000000000000A
:1046B00000000000000000000000000000000000FA
:1046C00000000000000000000000000000000000EA
:1046D00000000000000000000000000000000000DA
:1046E00000000000000000000000000000000000CA
:1046F00000000000000000000000000000000000BA
:1047000000000000000000000000000000000000A9
:1047100000000000100C4424140405C604041424F2
:1047200044140C0000000000000000000000000025
:104730000000000000000000000000000000000079
:104740000000000000000000000000000000000069
:104750000000000000000000000000000000000059
:104760000000000000000000000000000000000049
:104770000000000000000000000000000000000039
:104780000000000000000000000000000000000029
:104790000000000000000000000000000000000019
:1047A0000000000000000000000000000000000009
:1047B00000000000000000000000000000000000F9
:1047C00000000000000000000000000000000000E9
:1047D00000000000000000000000000000000000D9
:1047E00000000000000000000000000000000000C9
:1047F00000000000000000000000000000000000B9
:1048000000000000000000000000000000000000A8
:1048100000000000003F01010101FF010111211F03
:104820000000000000000000000000000000000088
:104830000000000000000000000000000000000078
:104840000000000000000000000000000000000068
:104850000000000000000000000000000000000058
:104860000000000000000000000000000000000048
:104870000000000000000000000000000000000038
:104880000000000000000000000000000000000028
:104890000000000000000000000000000000000018
:1048A0000000000000000000000000000000000008
:1048B00000000000000000000000000000000000F8
:1048C00000000000000000000000000000000000E8
:1048D00000000000000000000000000000000000D8
:1048E00000000000000000000000000000000000C8
:1048F00000000000000000000000000000000000B8
:1049000000000000000000000000000000000000A7
:104910000000101010FF9020984828090E2848A881
:10492000180000000000000000000000000000006F
:104930000000000000000000000000000000000077
:104940000000000000000000000000000000000067
:104950000000000000000000000000000000000057
:104960000000000000000000000000000000000047
:104970000000000000000000000000000000000037
:104980000000000000000000000000000000000027
:104990000000000000000000000000000000000017
:1049A0000000000000000000000000000000000007
:1049B00000000000000000000000000000000000F7
:1049C00000000000000000000000000000000000E7
:1049D00000000000000000000000000000000000D7
:1049E00000000000000000000000000000000000C7
:1049F00000000000000000000000000000000000B7
:104A000000000000000000000000000000000000A6
:104A1000000242817F0040404242427E4242424088
:104A20000000000000000000000000000000000086
:104A30000000000000000000000000000000000076
:104A40000000000000000000000000000000000066
:104A50000000000000000000000000000000000056
:104A60000000000000000000000000000000000046
:104A70000000000000000000000000000000000036
:104A80000000000000000000000000000000000026
:104A90000000000000000000000000000000000016
:104AA0000000000000000000000000000000000006
:104AB00000000000000000000000000000000000F6
:104AC00000000000000000000000000000000000E6
:104AD00000000000000000000000000000000000D6
:104AE00000000000000000000000000000000000C6
:104AF00000000000000000000000000000000000B6
:104B000000000000000000000000000000000000A5
:104B100040504E4848FF48484840F80000FF000019
:104B20000000000000000000000000000000000085
:104B30000000000000000000000000000000000075
:104B40000000000000000000000000000000000065
:104B50000000000000000000000000000000000055
:104B60000000000000000000000000000000000045
:104B70000000000000000000000000000000000035
:104B80000000000000000000000000000000000025
:104B90000000000000000000000000000000000015
:104BA0000000000000000000000000000000000005
:104BB00000000000000000000000000000000000F5
:104BC00000000000000000000000000000000000E5
:104BD00000000000000000000000000000000000D5
:104BE00000000000000000000000000000000000C5
:104BF00000000000000000000000000000000000B5
:104C000000000000000000000000000000000000A4
:104C1000003E0202FF12221E000F40807F000000B3
:104C20000000000000000000000000000000000084
:104C30000000000000000000000000000000000074
:104C40000000000000000000000000000000000064
:104C50000000000000000000000000000000000054
:104C60000000000000000000000000000000000044
:104C70000000000000000000000000000000000034
:104C80000000000000000000000000000000000024
:104C90000000000000000000000000000000000014
:104CA0000000000000000000000000000000000004
:104CB00000000000000000000000000000000000F4
:104CC00000000000000000000000000000000000E4
:104CD00000000000000000000000000000000000D4
:104CE00000000000000000000000000000000000C4
:104CF00000000000000000000000000000000000B4
:104D000000000000000000000000000000000000A3
:104D100022322AA6A26221110981010000000000AE
:104D20000000000000000000000000000000000083
:104D30000000000000000000000000000000000073
:104D40000000000000000000000000000000000063
:104D50000000000000000000000000000000000053
:104D60000000000000000000000000000000000043
:104D70000000000000000000000000000000000033
:104D80000000000000000000000000000000000023
:104D90000000000000000000000000000000000013
:104DA0000000000000000000000000000000000003
:104DB00000000000000000000000000000000000F3
:104DC00000000000000000000000000000000000E3
:104DD00000000000000000000000000000000000D3
:104DE00000000000000000000000000000000000C3
:104DF00000000000000000000000000000000000B3
:104E0000000000000000000000000000000042223E
:104E1000130B42827E02020A1223460000000000A9
:104E20000000000000000000000000000000000082
:104E30000000000000000000000000000000000072
:104E40000000000000000000000000000000000062
:104E50000000000000000000000000000000000052
:104E60000000000000000000000000000000000042
:104E70000000000000000000000000000000000032
:104E80000000000000000000000000000000000022
:104E90000000000000000000000000000000000012
:104EA0000000000000000000000000000000000002
:104EB00000000000000000000000000000000000F2
:104EC00000000000000000000000000000000000E2
:104ED00000000000000000000000000000000000D2
:104EE00000000000000000000000000000000000C2
:104EF00000000000000000000000000000000000B2
:104F00000000000000000000000000002030AC6342
:104F1000300088C8A8998E88A8C8880000000000C2
:104F20000000000000000000000000000000000081
:104F30000000000000000000000000000000000071
:104F40000000000000000000000000000000000061
:104F50000000000000000000000000000000000051
:104F60000000000000000000000000000000000041
:104F70000000000000000000000000000000000031
:104F80000000000000000000000000000000000021
:104F90000000000000000000000000000000000011
:104FA0000000000000000000000000000000000001
:104FB00000000000000000000000000000000000F1
:104FC00000000000000000000000000000000000E1
:104FD00000000000000000000000000000000000D1
:104FE00000000000000000000000000000000000C1
:104FF00000000000000000000000000000000000B1
:1050000000000000000000000000002267221212D1
:105010008040300F00003F40407100000000000061
:105020000000000000000000000000000000000080
:105030000000000000000000000000000000000070
:105040000000000000000000000000000000000060
:105050000000000000000000000000000000000050
:105060000000000000000000000000000000000040
:105070000000000000000000000000000000000030
:105080000000000000000000000000000000000020
:105090000000000000000000000000000000000010
:1050A0000000000000000000000000000000000000
:1050B00000000000000000000000000000000000F0
:1050C00000000000000000000000000000000000E0
:1050D00000000000000000000000000000000000D0
:1050E00000000000000000000000000000000000C0
:1050F00000000000000000000000000000000000B0
:105100000000000000000000000000404244584041
:10511000407F40405048C6000000000000000000F2
:10512000000000000000000000000000000000007F
:10513000000000000000000000000000000000006F
:10514000000000000000000000000000000000005F
:10515000000000000000000000000000000000004F
:10516000000000000000000000000000000000003F
:10517000000000000000000000000000000000002F
:10518000000000000000000000000000000000001F
:10519000000000000000000000000000000000000F
:1051A00000000000000000000000000000000000FF
:1051B00000000000000000000000000000000000EF
:1051C00000000000000000000000000000000000DF
:1051D00000000000000000000000000000000000CF
:1051E00000000000000000000000000000000000BF
:1051F00000000000000000000000000000000000AF
:10520000000000000000000000004044444444440A
:105210004444444444FF000000000000000000003B
:10522000000000000000000000000000000000007E
:10523000000000000000000000000000000000006E
:10524000000000000000000000000000000000005E
:10525000000000000000000000000000000000004E
:10526000000000000000000000000000000000003E
:10527000000000000000000000000000000000002E
:10528000000000000000000000000000000000001E
:10529000000000000000000000000000000000000E
:1052A00000000000000000000000000000000000FE
:1052B00000000000000000000000000000000000EE
:1052C00000000000000000000000000000000000DE
:1052D00000000000000000000000000000000000CE
:1052E00000000000000000000000000000000000BE
:1052F00000000000000000000000000000000000AE
:1053000000000000000000000808E8292E28E80836
:1053100008C80C0BE80808000000000000000000AE
:10532000000000000000000000000000000000007D
:10533000000000000000000000000000000000006D
:10534000000000000000000000000000000000005D
:10535000000000000000000000000000000000004D
:10536000000000000000000000000000000000003D
:10537000000000000000000000000000000000002D
:10538000000000000000000000000000000000001D
:10539000000000000000000000000000000000000D
:1053A00000000000000000000000000000000000FD
:1053B00000000000000000000000000000000000ED
:1053C00000000000000000000000000000000000DD
:1053D00000000000000000000000000000000000CD
:1053E00000000000000000000000000000000000BD
:1053F00000000000000000000000000000000000AD
:10540000000000000000000000FF0949897F000043
:105410000F40807F0000000000000000000000003E
:10542000000000000000000000000000000000007C
:10543000000000000000000000000000000000006C
:10544000000000000000000000000000000000005C
:10545000000000000000000000000000000000004C
:10546000000000000000000000000000000000003C
:10547000000000000000000000000000000000002C
:10548000000000000000000000000000000000001C
:10549000000000000000000000000000000000000C
:1054A00000000000000000000000000000000000FC
:1054B00000000000000000000000000000000000EC
:1054C00000000000000000000000000000000000DC
:1054D00000000000000000000000000000000000CC
:1054E00000000000000000000000000000000000BC
:1054F00000000000000000000000000000000000AC
:105500000000000000000004047454545556545424
:1055100054740404000000000000000000000000BB
:10552000000000000000000000000000000000007B
:10553000000000000000000000000000000000006B
:10554000000000000000000000000000000000005B
:10555000000000000000000000000000000000004B
:10556000000000000000000000000000000000003B
:10557000000000000000000000000000000000002B
:10558000000000000000000000000000000000001B
:10559000000000000000000000000000000000000B
:1055A00000000000000000000000000000000000FB
:1055B00000000000000000000000000000000000EB
:1055C00000000000000000000000000000000000DB
:1055D00000000000000000000000000000000000CB
:1055E00000000000000000000000000000000000BB
:1055F00000000000000000000000000000000000AB
:105600000000000000848341211D05050505057D7E
:10561000818185E300000000000000000000000020
:10562000000000000000000000000000000000007A
:10563000000000000000000000000000000000006A
:10564000000000000000000000000000000000005A
:10565000000000000000000000000000000000004A
:10566000000000000000000000000000000000003A
:10567000000000000000000000000000000000002A
:10568000000000000000000000000000000000001A
:10569000000000000000000000000000000000000A
:1056A00000000000000000000000000000000000FA
:1056B00000000000000000000000000000000000EA
:1056C00000000000000000000000000000000000DA
:1056D00000000000000000000000000000000000CA
:1056E00000000000000000000000000000000000BA
:1056F00000000000000000000000000000000000AA
:10570000000000000000FC242424FC252624FC24A6
:10571000242404000000000000000000000000003D
:105720000000000000000000000000000000000079
:105730000000000000000000000000000000000069
:105740000000000000000000000000000000000059
:105750000000000000000000000000000000000049
:105760000000000000000000000000000000000039
:105770000000000000000000000000000000000029
:105780000000000000000000000000000000000019
:105790000000000000000000000000000000000009
:1057A00000000000000000000000000000000000F9
:1057B00000000000000000000000000000000000E9
:1057C00000000000000000000000000000000000D9
:1057D00000000000000000000000000000000000C9
:1057E00000000000000000000000000000000000B9
:1057F00000000000000000000000000000000000A9
:1058000000000040308F80844C55252525554C8064
:105810008080000000000000000000000000000088
:105820000000000000000000000000000000000078
:105830000000000000000000000000000000000068
:105840000000000000000000000000000000000058
:105850000000000000000000000000000000000048
:105860000000000000000000000000000000000038
:105870000000000000000000000000000000000028
:105880000000000000000000000000000000000018
:105890000000000000000000000000000000000008
:1058A00000000000000000000000000000000000F8
:1058B00000000000000000000000000000000000E8
:1058C00000000000000000000000000000000000D8
:1058D00000000000000000000000000000000000C8
:1058E00000000000000000000000000000000000B8
:1058F00000000000000000000000000000000000A8
:1059000000001010D0FF9014E4AFA4A4A4AFE404EE
:105910000000000000000000000000000000000087
:105920000000000000000000000000000000000077
:105930000000000000000000000000000000000067
:105940000000000000000000000000000000000057
:105950000000000000000000000000000000000047
:105960000000000000000000000000000000000037
:105970000000000000000000000000000000000027
:105980000000000000000000000000000000000017
:105990000000000000000000000000000000000007
:1059A00000000000000000000000000000000000F7
:1059B00000000000000000000000000000000000E7
:1059C00000000000000000000000000000000000D7
:1059D00000000000000000000000000000000000C7
:1059E00000000000000000000000000000000000B7
:1059F00000000000000000000000000000000000A7
:105A000000040300FF00894B2A1A0E1A2A4B8880D3
:105A10000000000000000000000000000000000086
:105A20000000000000000000000000000000000076
:105A30000000000000000000000000000000000066
:105A40000000000000000000000000000000000056
:105A50000000000000000000000000000000000046
:105A60000000000000000000000000000000000036
:105A70000000000000000000000000000000000026
:105A80000000000000000000000000000000000016
:105A90000000000000000000000000000000000006
:105AA00000000000000000000000000000000000F6
:105AB00000000000000000000000000000000000E6
:105AC00000000000000000000000000000000000D6
:105AD00000000000000000000000000000000000C6
